:020000040800F2
:10000000C00A0020D50700089D0F02089D0F0208B6
:10001000952802089D0F02089D0F02089D0F0208F7
:100020009D0F02089D0F02089D0F02089D0F0208F8
:100030009D0F02089D0F0208752A02089D0F0208F5
:100040009D0F02089D0F02089D0F02089D0F0208D8
:100050009D0F02089D0F02089D0F02089D0F0208C8
:100060009D0F02081D770008393C02089D0F020809
:100070009D0F02089D0F02089D0F02089D0F0208A8
:100080009D0F02089D0F02089D0F02089D0F020898
:100090009D0F0208110F00089D0F02089D0F020816
:1000A0009D0F02089D0F02089D0F02089D0F020878
:1000B0009D0F0208A5F70108C10202082FBE020821
:1000C0002BBE020865FA01083BBE020833BE0208D7
:1000D0009502020837BE0208010302086D030208F8
:1000E0009D0F02089D0F02089D0F02089D0F020838
:1000F0002F2302089D0F02089D0F02089D0F020882
:100100009D0F02089D0F02089D0F02089D0F020817
:100110009D0F02089D0F02089D0F02089D0F020807
:100120009D0F02089D0F02089D0F02089D0F0208F7
:100130009D0F02089D0F02089D0F02089D0F0208E7
:100140009D0F02089D0F02089D0F0208BB2902089F
:100150001DDE01089D0F0208D9BD0208DFBD02089F
:100160009D0F02089D0F02089D0F02089D0F0208B7
:10017000F0B5114A114C124E00F00105E3695F071A
:1001800013D40DB9334213D103EA00078F4207D1CC
:100190000B4A1A40002A0CBF00206FF00100F0BD8E
:1001A000013AEBD16FF00200F9E74FF0FF30F6E7CC
:1001B0006FF00100F3E700BF809698000000035045
:1001C000020001000B4B70B5D96911F480310DD1DB
:1001D00001244FF48072084E084DF46020462C64D0
:1001E0001A61FFF7C5FF3464EC6070BD6FF0010069
:1001F000FBE700BF00000350001003500020035035
:100200004FF4803238B50E4B0E4C9A66E56941F6D4
:10021000713315400122E3630B4B0021DA600223A6
:10022000606121202361FFF7A3FF10B92120FFF7B0
:100230009FFF0122054BDA600DB10023E36338BD57
:1002400000900050000003500010035000200350A5
:1002500070B5134C6061E3695B071ED40E4656F817
:10026000043B8D18A361AE420BD104230021212051
:100270002361FFF77DFF58B9BDE870402120FFF7EB
:1002800077BF08210846FFF773FF10B104232361ED
:1002900070BD56F8043BA361E5E74FF0FF30F7E788
:1002A000000003502DE9F84315464FF48032184BF7
:1002B00089469A6603F51C33DF690646174041F606
:1002C0007132DA63012203F58053DFF84C80DA6083
:1002D00055B9284601220F4BDA601FB10022A3F561
:1002E0000053DA63BDE8F88306F5005404EA080415
:1002F000A41BAC4228BF2C46494622463046FFF795
:10030000A7FF0028E6D12644A1442D1BE0E700BF4B
:0C031000009000500020035000E0FFFFB0
:10032000013800D0FCE77047002370B5404C05460B
:100330008AB0E36318B1008823600DF065FF3D4883
:100340002BF02FF93C4E3D4B304633603C4B7360F5
:1003500026F0A1FD0021304618F04AFF32A3D3E970
:100360000023A062C4E9062326F0A0FDD4E90623F9
:1003700019431043C4E90601CDE900014FF0FF33F2
:100380004FF0FF32A06A2BF060F902224FF0FF31EC
:10039000A06A2BF05FF901200DF082FC4FF400738E
:1003A00000222849A06A2BF0A8F9B0F5007F38D1C7
:1003B00000239422CDE9073309933C23CDE903328E
:1003C00005939623A06A03A9069318F0F9FF35B3A5
:1003D000287C0EF0D3F80546F0B9A06A2BF06DFA30
:1003E0000EF07AF80DF03EFC20B14FF48070002141
:1003F0000AF0C6FC0DF046FC20B14FF4006000216D
:100400000AF0BEFC26F078FE012018F047FF0E4AE5
:100410000E49A06A26F03DFD28460AB070BDFF20B7
:10042000D7E70725F8E700BF0DD5015520000000EC
:10043000300B0020690345EC641E002025DB00081A
:10044000741E0020641C00203B6E02087B6E0208B4
:100450000348044B834202D0034B03B11847704753
:10046000442A0020442A002000000000064B0749CF
:10047000C91A891048BF0131491003D0044B0BB190
:1004800001481847704700BF442A0020442A002032
:100490000000000010B5064C237843B9FFF7D8FFE1
:1004A000044B13B10448AFF300800123237010BD47
:1004B0001A250020000000005C27030808B5054B42
:1004C0001BB105490548AFF30080BDE80840FFF7C0
:1004D000CDBF00BF00000000A80D00205C2703086E
:1004E000A3F5803A704700BF174B002B08BF134B92
:1004F0009D46FFF7F5FF00218B460F461348144A2F
:10050000121A23F08EFC0E4B002B00D098470D4B97
:10051000002B00D098470020002104000D000D485A
:10052000002802D00C48AFF3008007F0FFFC200049
:10053000290023F0B7FB07F0E7FC00BF000008002C
:100540000000000000000000C00A0020C00A0020D7
:100550003C26002000000000000000000B4B02467B
:100560001B7883B10A4B1B78834234BF00200120E3
:10057000084B1B7833B1084B1B78134113F0010F64
:1005800008BF002070470120F2E700BF142A0020B6
:10059000132A00201B250020122A0020012208B562
:1005A000074B1A700022074B1A700422064B1A7070
:1005B0001F22064B1A7004F091FB054B186008BD12
:1005C000142A00201B250020132A0020122A0020B4
:1005D000C00D0020024B0349186821F0F5BE00BF92
:1005E000C00D002088C8020870B50C4C0C490646A6
:1005F000206821F0E9FE04F071FB0546206804F054
:1006000061FB3046FFF7E6FF284604F05BFB2068FD
:100610000449BDE8704021F0D7BE00BFC00D0020E6
:100620008AC802088CC8020808B5044821F015FEE3
:1006300023F0D2FABDE8084000F01CB854DB0208F1
:10064000014821F00ABE00BF54DB020807B50820AC
:1006500020F0B8FC02238DF80030054B684601936A
:1006600020F03AFC082003B05DF804EB20F0B5BCA4
:10067000006A18102DE9F047434D88B001AC0FCD4A
:100680000FC495E807000125DFF8148184E807000E
:100690003E4821F0E2FD3E4F404621F0DEFD3D4B5D
:1006A000384601A903938DF8125002F057F92B46F2
:1006B00029460422022001F015FF02212A4608469D
:1006C000002301F00FFF2B4604220321022001F03A
:1006D00009FF04222B461146022001F003FF2E4C95
:1006E0002E4B1026C4F834374FF00213C4F83037BD
:1006F000A3F58033C4F838371C2304F5005AC4F836
:1007000020374FF4487006F07BF904F58059142027
:10071000CAF8A06006F074F92320C9F8A06006F0BA
:100720006FF9B9213846CAF8A06020F03BFD0023DC
:1007300029461A460220C9F8A06001F0D3FE002322
:1007400002211A46084601F0CDFE2B460022032165
:10075000022001F0C7FE2B4600220421022001F0F6
:10076000C1FE384602F078F800234046C4F834371A
:10077000C4F83037C4F83837C4F8203721F070FD9A
:1007800008B0BDE8F08700BF90C8020854DB02083B
:1007900000C0055000127A0000C0035002000300A0
:1007A00048DB0208034B5868C0F30800003818BF44
:1007B0000120704700ED00E00348044A0449121A82
:1007C000921020F0ECBB00BF700100081C03000871
:1007D0003C26002008B500F02FF8FFF7EDFF124B84
:1007E00012498B4212D30020114B12498B4218D36D
:1007F000FFF77AFE186850F82240586840F8224007
:10080000013298688242F5D30C33EAE70022F8E718
:100810001C6844F8220001325C68A242F8D3083315
:10082000E4E70022F8E700BF642703087027030805
:1008300070270308702703084FF48041124B134AB6
:1008400070B59A60D3F88820114D42F47002C3F855
:100850008820104A05F5005491664FF0FF32226659
:100860000D4A62660222C3F8D020BFF34F8FBFF358
:100870006F8F4FF44036002004F002FA0020E6604B
:1008800004F0F0F92E6170BD00ED00E000000008FA
:100890000080004400900050F7FF3700014B1868BB
:1008A000704700BFEC270020014B1860704700BF65
:1008B000EC270020084B1B6F03F00703022B04D02A
:1008C000032B05D0012B05D0FEE7044B18687047B9
:1008D000034BFBE70348704700800050EC270020E3
:1008E000F4270020002D310108B5FFF7E3FF054B89
:1008F0001B6FC3F303330133B0FBF3F0024B1860FB
:1009000008BD00BF00800050E82700200048704765
:1009100000B4C404014B1868704700BFF4270020DE
:10092000054B1860054B1B6F03F00703032B01D128
:10093000FFF7DABF704700BFF427002000800050A7
:1009400000487047002D31014FF0B4439868C0F360
:1009500004400C280AD8DFE800F00B09090909094E
:10096000072119091B1D1F000F4870470020704701
:100970009B6803F04073B3F1807F11D0B3F1007F27
:1009800010D00A4A002B08BF10467047084870472D
:10099000084870470848704708487047084870473B
:1009A0000848704708487047405DC60000093D0090
:1009B000C0EA210180BA8C010048E801005A6202B5
:1009C0000024F40080841E0040420F00014B186890
:1009D000704700BFF027002013B500242948019478
:1009E00021F03BFC012304220321204601F07AFD83
:1009F000204620F09AFB0122234B0520C3F8442413
:100A000001A921F020FC002839D1204BD3F8F02097
:100A100042F00102C3F8F020D3F8FC2042F08072CB
:100A2000C3F8FC201A4AA3F55D431A60019B194ADA
:100A300003F5D52303F2FC43B3FBF2F3164A013B63
:100A400013610223C2F8F0304FF48073C2F804330C
:100A50004FF06043114AC3F8B02F114AC3F8802EFB
:100A6000D3F8002E42F48072C3F8002EFF2283F8E0
:100A70002020D3F8002E22F48072C3F8002E02B09A
:100A800010BD00BF54DB020800D0035000ED00E0B1
:100A9000FF030040F8590D00000004E055CEACC53E
:100AA000090001004FF06043D3F8802E30B5D20723
:100AB00015D501240B4D8440D5F8FC2042F08072FE
:100AC000C5F8FC20D3F8002E2243C3F8002E53F8BB
:100AD0002020002AF0D003F82010002030BD112083
:100AE000FCE700BF00ED00E02DE9F04F9A46564BC1
:100AF00085B01B7806460F461546DDF83C909DF8FC
:100B000044B0DDF85080002B00F09780072A00F2F7
:100B100096800E9B002B00F09280B9F1000F00F040
:100B20008E80129BB3F5006F00F38980012803D1FA
:100B3000109B002B00F08380444B03EB05131B7BC1
:100B4000002B7ED0424C10220021684623F069F928
:100B500004EB45141022A7BB3946204623F061F967
:100B600043F210036380BBF1000F03D1E37843F03D
:100B70000303E370364A0E9B02EB451CCCE901935C
:100B8000129B6901581E9DF84C30C0F30A0003F017
:100B900003039B0643EA001E53582E48012E00EA29
:100BA00003004EEA0003CDF800A0535017D0B8F16F
:100BB000000F2ED19CF8023068F304138CF8023039
:100BC00027E00021204623F02CF94FF44473638082
:100BD000BBF1000FCED1E37843F03003C9E7132314
:100BE0000CF1100ECCF80C309CE80F008EE80F00D2
:100BF0006FF00301DCF81C20109B61F39F02012FB2
:100C0000CCF81C20CCF8143003D1CCF81890CCF8D8
:100C1000043000270D4A290102EB051342F8018038
:100C2000159A28465A60694622469F605E7301F015
:100C3000EDFC384605B0BDE8F08F0748FAE70748F5
:100C4000F8E70748F6E700BF1C250020C40E002087
:100C5000C40D00200F80FFF3028000F0018000F03F
:100C6000078000F038B5124B05461B78DBB1E0B1C8
:100C700020F084F90F4A00231146147B54B92B60ED
:100C800001251A0101EB03131D738C5020F07CF930
:100C9000204638BD0133082B02F11002EDD120F0BF
:100CA00073F90548F5E70548F3E70548F1E700BFA4
:100CB0001C250020C40E0020048000F0028000F0FB
:100CC000018000F038B520F059F9002305460B4AA1
:100CD000147B6CB90133082B02F11002F8D101F03A
:100CE00041FC074B28461C7020F04EF9204603E0DB
:100CF000284620F049F9034838BD00BFC40E002043
:100D00001C250020058000F00D4B10B51B78044613
:100D100093B1072812D820F031F90A4B03EB0413E2
:100D20001A7B2AB100241C7320F02EF9204610BD36
:100D300020F02AF90448FAE70448F8E70448F6E7FF
:100D40001C250020C40E0020068000F0028000F068
:100D5000018000F0154B13B51868002301908DF841
:100D6000043020F00BF9124B1C7824B120F00CF960
:100D7000104802B010BD01221A7020F005F90E4B88
:100D800001A81C731C7783F82C4083F83C4083F83F
:100D90004C4083F85C4083F86C4083F87C40082327
:100DA0008DF8073001F002FC2046E2E7ACC80208EB
:100DB0001C250020038000F0C40E00200A4A08B55C
:100DC00012785AB107280BD8084A02EB00131B7B94
:100DD00043B1002101F0DCFB002008BD0448FCE722
:100DE0000448FAE70448F8E71C250020C40E002058
:100DF000028000F0018000F0078000F00A4A08B588
:100E000012785AB107280BD8084A02EB00131B7B53
:100E100043B1012101F0BCFB002008BD0448FCE700
:100E20000448FAE70448F8E71C250020C40E002017
:100E3000028000F0018000F0078000F00A4A08B547
:100E4000127852B107280AD8084A02EB00131B7B1C
:100E50003BB101F027FC002008BD0548FCE7054830
:100E6000FAE70548F8E700BF1C250020C40E002063
:100E7000028000F0018000F0078000F00D4B1B782D
:100E800093B1072812D889B10B4B03EB00131B7BDE
:100E900073B10A4B1A6D01238340134214BF01231F
:100EA000002300200B7070470548704705487047C5
:100EB000054870471C250020C40E00200000045087
:100EC000028000F0018000F0078000F00B4A10B5AE
:100ED00012780C4662B107280CD859B1084A02EBC7
:100EE00000131B7B43B101F0EFFB2070002010BD0D
:100EF0000448FCE70448FAE70448F8E71C2500200A
:100F0000C40E0020028000F0018000F0078000F095
:100F1000184B2DE9F0411F6D5B6D1F4000D5FEE7BA
:100F200001260025144CDFF85880374218D023687A
:100F3000C8F85060A3B1A168284601316268A16079
:100F40009847637B012B0BD150B90C4B03EB451336
:100F50001A7B60F341021A731A7F60F341021A7719
:100F60000135082D4FEA460604F11004DDD1BDE835
:100F7000F08100BF00000450C40E0020C40D00200A
:100F800000200450024B1968024B186817F03CBD52
:100F9000F82700201828002070B594002246054646
:100FA0000E462BF069FC431C0AD058B92246314644
:100FB000284622F00CFF0028034808BF002070BD1F
:100FC0000248FCE70248FAE710E000F021E000F0F8
:100FD00024E000F010B504462BF052FC431C10D066
:100FE00088B901F0FFFB234620F00300204498421B
:100FF00001D1002010BD53F8042B0132F7D0034873
:10100000F8E70348F6E70348F4E700BF0EE000F016
:1010100021E000F024E000F008B51FF0A8FF014B2C
:10102000186008BD34160020014B18681FF0A3BFDC
:1010300034160020044BD3F88420D206FBD4D3F816
:101040008400C0F381107047004000502E4B98423E
:101050004AD022D82D4B984240D014D82C4B9842DD
:1010600039D00AD82B4B984232D02B4B98422FD0F4
:101070002A4B98422CD000207047294B9842FAD135
:10108000284B186F7047284B98422AD0274B98421C
:10109000F1D1244BD3F880007047254B98422BD0D8
:1010A00009D8244B984223D0234B9842E3D11D4BBF
:1010B000D3F88C007047214B984221D003F574037C
:1010C00003F510539842D6D1164BD3F898007047C9
:1010D000144B986D7047134B586E7047114B586FF7
:1010E0007047104B986F70470E4BD3F884007047D1
:1010F0000C4BD3F8880070470A4BD3F89000704728
:10110000084BD3F8940070470048E8010024F4002D
:10111000C0CF6A0080841E0000093D0040420F00DD
:10112000405DC6000080E00FC0EA210180BA8C015A
:10113000007E560380D54302006CDC020090D00391
:1011400038B5104B0546D3F880300C4603F0030346
:10115000022B0BD0032B0DD0012B0FD1FFF7AAFBD5
:101160000E2305B1286004B1236038BDFFF7ECFB06
:101170000723F6E7FFF792FB0623F2E70023184662
:10118000EFE700BF0080005038B5184B0546D3F894
:1011900020010C4600F00700062823D8DFE800F005
:1011A000040A0E16121A1E00012305B1286004B1AC
:1011B000236038BDFFF772FB0523F6E7FFF7AAFBB4
:1011C0000323F2E7FFF7C0FB0723EEE7FFF7B8FBC7
:1011D0000223EAE7FFF762FB0623E6E7FFF79AFB45
:1011E0000423E2E700231846DFE700BF0080005039
:1011F00038B5174B0546D3F828310C4603F00703E2
:10120000013B052B20D8DFE803F003131B0F0B175E
:10121000FFF744FB052305B1286004B1236038BD06
:10122000FFF73CFB0623F6E7FFF78EFB0723F2E709
:10123000FFF770FB0323EEE7FFF76CFB0423EAE7FD
:10124000FFF77EFB0223E6E700231846E3E700BF33
:101250000080005073B50D460021114B0191D3F869
:101260008041064604F00304022C13D0032C0CD05A
:10127000012C13D101A8FFF787FF10240EB1019BA9
:10128000336005B12C6002B070BDFFF75DFB072431
:101290000190F3E7FFF754FB0190EFE70C46EDE711
:1012A00000800050002337B50193164B0546D3F854
:1012B00020320C4603F00703042B21D8DFE803F0AB
:1012C000030B11161B0001230DB1019A2A6004B112
:1012D000236003B030BD002101A8FFF789FF12236E
:1012E000F2E7FFF731FB07230190EDE71FF064FE03
:1012F0000A230190E8E7FFF769FB09230190E3E780
:101300000023E1E70080005038B5104B0546D3F8C4
:1013100040310C4603F00303022B0BD0032B0DD0FE
:10132000012B0FD11FF048FE0A2305B1286004B13C
:10133000236038BDFFF74AFB0923F6E71FF03FFEA5
:101340000C23F2E701230020EFE700BF00800050EC
:10135000002337B50193164B0546D3F860320C468F
:1013600003F00703013B032B1FD8DFE803F0020E55
:101370001914002101A8FFF707FF10230DB1019AEE
:101380002A6004B1236003B030BD002101A8FFF73B
:10139000BBFF1123F2E7FFF7D7FA07230190EDE730
:1013A000FFF7CEFA02230190E8E70023E6E700BF4B
:1013B00000800050002337B50193164B0546D3F843
:1013C00094320C4603F00703013B032B1FD8DFE8E0
:1013D00003F0020E1914002101A8FFF7D5FE102317
:1013E0000DB1019A2A6004B1236003B030BD002121
:1013F00001A8FFF789FF1123F2E7FFF7A5FA0723FA
:101400000190EDE7FFF79CFA02230190E8E7002343
:10141000E6E700BF0080005038B5144B0546D3F80E
:1014200000020C4600F0070004281BD8DFE800F09B
:1014300003090D111500012305B1286004B12360D3
:1014400038BD1FF0B9FD0A23F6E7FFF7BFFA0923FD
:10145000F2E71FF0B4FD0C23EEE7FFF745FA0F2388
:10146000800AE9E700231846E6E700BF0080005045
:1014700038B5144B0546D3F808020C4600F00700B7
:1014800004281BD8DFE800F003090D111500012323
:1014900005B1286004B1236038BD1FF08DFD0A231B
:1014A000F6E7FFF793FA0923F2E71FF088FD0C2314
:1014B000EEE7FFF719FA0F23800AE9E70023184641
:1014C000E6E700BF0080005038B5104B0546D3F862
:1014D00040320C4603F00303022B0BD0032B0DD03C
:1014E000012B0FD11FF068FD0A2305B1286004B15C
:1014F000236038BDFFF76AFA0923F6E71FF05FFDA6
:101500000C23F2E701230020EFE700BF008000502A
:1015100038B5104B0546D3F860310C4603F0030391
:10152000022B0BD0032B0DD0012B0FD11FF044FD4C
:101530000A2305B1286004B1236038BDFFF746FADD
:101540000923F6E71FF03BFD0C23F2E701230020FF
:10155000EFE700BF00800050B0F5207F1FD009D812
:10156000B0F5007F15D003D868B1B0F5C07F0AD0C0
:1015700000200CE0B0F5607FFAD10B4BD3F880006F
:10158000C0F3011003E0084B186FC0F303300130C3
:101590007047054BD3F89000C0F30460F7E7024BA7
:1015A000186FC0F38020F2E70080005002464FF42D
:1015B0008030104B10B598660020FFF7CDFF5043E8
:1015C00041F671320C4BDC69DA635A6804F48034FA
:1015D00022F4401259B90949884294BF00200120E1
:1015E000000502435A600CB10022DA6310BD0449C1
:1015F000F2E700BF0090005000000350005A620262
:10160000002D3101430905D0012B0CD0022B084BD2
:1016100018BF002300F01F0039B103F580530122E9
:1016200082401A607047034BF4E703F50053F6E776
:1016300068800050648000501FB500218028044657
:10164000CDE9001100F0A58035D85E2846D85E2887
:1016500044D8DFE800F0A2434343434343434343BA
:10166000434343434343434343434343434343434A
:10167000434343434343A2AAA2AABABABABABAAAF4
:10168000C44DDA714DAAAAAA43434343434343439B
:10169000AAAAAA79E4AA43434343434343434343A7
:1016A000434343BAA2A2A2DF4D4DE9885EBF434344
:1016B00043434399A200B0F5B06F00F090802DD85D
:1016C000B0F5207F71D00CD8B0F5C07F65D0B0F5F3
:1016D000007F65D0B0F5807F00F08680009804B070
:1016E00010BDB0F5607F6BD00DD8B0F5407FF5D15F
:1016F000FFF7FAF802464FF42070FFF72DFFB2FB18
:10170000F0F252085AE0B0F5806F5ED0B0F5A06FED
:10171000E4D100216846FFF7C5FDDFE7B0F5106FA3
:1017200078D016D8B0F5E06F79D00AD8B0F5C06F90
:101730006BD0B0F5D06FD1D100216846FFF76CFEB9
:10174000CCE7B0F5F06FC9D100216846FFF7E0FEA5
:10175000C4E7B0F5406F3DD013D8B0F5206F63D02B
:10176000B0F5286FBAD10021324B0391D3F8703213
:1017700003F00303012B02D103A8FFF7C5FD039B70
:101780003CE0B0F5486FA9D100216846FFF712FE92
:10179000A4E7FFF78FF80090A0E7FFF7A5F8FAE7B6
:1017A000FFF788F80246204604E0FFF79DF802465E
:1017B0004FF42070FFF7D0FEB2FBF0F200928DE7FD
:1017C00001A8FFF7BDFC019AEDE700216846FFF78D
:1017D000DBFC83E700216846FFF70AFD7EE7002176
:1017E0006846FFF737FD79E74FF0E02302911B6968
:1017F0005B0705D5FFF778F80290029B00936DE731
:1018000003A902A8FFF780FDF7E700216846FFF76C
:101810007BFD63E700216846FFF72AFE5EE70021B3
:101820006846FFF751FE59E700216846FFF790FD33
:1018300054E700BF0080005008B58020FFF7FCFE91
:10184000034B98429EBF4FF48032024B1A6708BD8B
:10185000005A620200A000501FB503460020B3F5F5
:10186000807F019000F0C18064D85D2B55D84C2B4F
:1018700007D82D2B48D8232B2CD8019805B05DF81C
:1018800004FB4D3B102BF8D801A252F823F000BF07
:10189000E11900087B1800087B1800087B18000875
:1018A000971900087B1800087B180008651A0008C3
:1018B000B51900085B1900085B1A00087B180008BE
:1018C0007B1800087B1800087B1800087B180008AC
:1018D0006F1A0008243B092BCFD801A252F823F03D
:1018E000E1190008E1190008E1190008E1190008F0
:1018F000E11900087B180008D71900087B180008B8
:1019000077190008171A00083D2B7FD03E2BB4D161
:10191000002001A9FFF7D8FDAFE7802BADD1594BCF
:101920001B6F03F00703013B032BA6D8DFE803F08E
:10193000514E858DB3F5F06F68D021D8B3F5B06FF7
:1019400049D00FD8B3F5607F00F0838095D3B3F50D
:10195000806F45D0B3F5A06F8FD1002001A9FFF7AC
:10196000A1FC8AE7B3F5D06F55D0B3F5E06FCFD0C7
:10197000B3F5C06F81D1002001A9FFF7C5FC7CE75A
:10198000B3F5206F6ED00BD8B3F5086F48D0B3F520
:10199000106F7FF472AF002001A9FFF769FD6CE7BB
:1019A000B3F5406F59D0B3F5486F60D0B3F5286FE9
:1019B0007FF463AF334BD3F8703203F00303012B92
:1019C0005AD0022B0CBF1523002300E005230193FE
:1019D00053E70223FBE7002001A9FFF73BFC4CE79C
:1019E000002001A9FFF7D0FB47E74FF0E02302906A
:1019F0001B695B0705D5FEF777FF0D230393039B58
:101A0000E5E703A902A8FFF77FFCF8E7002001A99A
:101A1000FFF77EFD31E7002001A9FFF7FDFC2CE771
:101A2000184BD3F8003103F00303022B07D0032B2C
:101A300009D0012B0BD1FEF76DFF0323C7E7FEF79B
:101A4000C5FF0923C3E71FF0B5FA0823BFE7012349
:101A5000BDE701A9FFF774FB0FE7002001A9FFF71D
:101A6000C7FB0AE7002001A9FFF772FC05E7002089
:101A700001A9FFF79FFC00E7002103A8FFF744FC42
:101A80001123A4E7008000504FF48032074B08492F
:101A9000586E03F580535A664B6A23F001034B627C
:101AA000C3035CBF034B5A66704700BF0080005001
:101AB00000C0075000A0005008B5FFF7CDFE092870
:101AC00011D00A38012802D94FF6FF7008BD4FF433
:101AD0008002064B5A6603F5D8335B6ADB07F3D501
:101AE0004FF4FA70F2E7024B1888EFE700900050CD
:101AF0009229002008B5FFF7AFFE03280ABF024B6A
:101B00004FF6FF70188808BD9029002038B50446AC
:101B10008020FFF7A1FE032800F083804FF480129D
:101B2000524B4FF0A0615A6645F60E02504BC3F877
:101B30008020504A91624FF4803102F580529162C8
:101B40009A6DD203FCD4996D11F08041FBD1D4E998
:101B50000002120542EA0062E07B0243207B42EA77
:101B60000042607B42EA0032A07B42EA80121A61A6
:101B70009869D4E90452120642EA856200F00040F6
:101B80000243A07EE57E0243207E42EA0042607E60
:101B900042EA00229A611A6AE06922F00F0242EAE0
:101BA0008502354D00283DD11A6294F82420996AA7
:101BB00094F82000D200294042EA40120A4394F8E7
:101BC000211042EA011242F480329A622B49284ADB
:101BD000936D31EA0303FBD14FF080712548816298
:101BE0001369A56823F4700343EA055313614FF0AA
:101BF0000043836194F822300BB9214B996294F829
:101C000023303BB94FF480321D4B9A62184A936DD2
:101C10005B00FCD494F825301BB1154B194AC3F86E
:101C2000802038BD024342F0080202281A6208D11F
:101C300019614FF40852996113484FF47F411FF026
:101C400027FA0B4994F822308A6A94F820001B0680
:101C50002A4043EA4013134394F8242043EAC20382
:101C600094F8232043EA02438B62D3E700900050AC
:101C70000040005A0050005AC7FFFEFE030001005A
:101C80000060005AF1A7FFFF3440005A70B5194CAC
:101C9000FF28A66A2BD8A36D4FF0807113F4803F04
:101CA00018BF4FF48032144B18BF9A629962134ADE
:101CB000A36992F9005023F47F03054423F47F4382
:101CC00043EA002385F3080543EA0543A36132464E
:101CD0000B481FF0DDF9A36DDB0301D4002070BDBC
:101CE00032464FF4803106481FF0D2F9F6E7212042
:101CF000F5E700BF0040005A0050005A152A0020A6
:101D00002840005A014B93F900007047152A002023
:101D10004FF4803311481249826A8B62836D03F05D
:101D20000303032BFAD14FF080730E488B620B4BE9
:101D3000996D30EA0101FBD1012009490865996DCF
:101D40008907FCD4054B996D8807FCD5996D8907E7
:101D5000FCD5054905481FF09BB900BF0040005A5B
:101D60000050005A03000100000001012840005A01
:101D7000F0B5D0E901434FF400061A4A41780578DE
:101D800056664FF4D156022702F5B8325662164E07
:101D90004F2977604FF0010728BF4F2106F5805685
:101DA00077601669F603FCD441EA052151611B01F5
:101DB000417B43EA04230B43017B43EA41039360E5
:101DC000C37B817B1B0143EA4113417C0B43017CB4
:101DD00043EA41035360837C13B16FF4D1535362E0
:101DE000F0BD00BF0090005000100250014B188061
:101DF000704700BF92290020014B1880704700BF38
:101E0000902900204FF4800208B5184B5A6602232F
:101E1000174A5360936813F48033FBD1012822D111
:101E2000FEF778FD134B984215D003F5122303F506
:101E3000F863984213D0104B00EB8002400AB3FBCA
:101E4000F0F3520A0A49CA620B6301234B62002273
:101E5000074B5A6008BD45F67A13084AF2E745F683
:101E60001A03074AEEE75362F1E700BF0090005003
:101E70000040025000F0490264666666D8B805006A
:101E8000BBCF0500B0F5207F10B50C465DD008D85B
:101E9000B0F5007F4ED003D8C0B1B0F5C07F15D0EB
:101EA00010BDB0F5607FFBD12C4B4C1ED3F8FC204D
:101EB0002B4912F0807F4FEA041427D1D1F88030EB
:101EC00023F030032343C1F88030E9E71FF0EFF837
:101ED0001FF0FBF84FF48031224B214A1967136F32
:101EE000013C23F4704343EA04331367FEF7FCFC20
:101EF0000446FFF79FF8C0F1020120461FF0DFF80B
:101F000000F042F8BDE81040FFF796BCD3F8FC2083
:101F100022F08072C3F8FC20D1F8802022F0300239
:101F20002243C1F88020D3F8FC2042F08072C3F82D
:101F3000FC20B5E70A4A4C1ED2F8903023F0F85343
:101F400043EA0463C2F89030AAE7054A4C1E136FB7
:101F500023F4806343EA84231367A1E700ED00E0E4
:101F6000008000500090005008B50121022000F0D0
:101F70006DF91FF09CF81FF0A8F84FF48032014B68
:101F80001A6708BD0090005008B54FF4C070FFF705
:101F900053FBBDE808400449884294BF0121022157
:101FA0004FF42070FFF76EBF80F0FA024FF4C022AA
:101FB00070B50546FFF74AF8314B04465A6603F5FB
:101FC00098335A68012A04D12E494A605A68920708
:101FD000FCD48020FFF740FC052807D11FF067F8EC
:101FE0001FF073F84FF48032254B1A67264B24F00C
:101FF00040749D4230D0254B9D4230D0FEF74EFCC0
:102000008542064603D90121284600F05FF9204B9E
:10201000DA6812F0060FFBD199689C609A686240FA
:1020200012F4F81F1ED12846FEF73EFC8020FFF771
:1020300013FC05280DD1FEF757FC0446FEF7FAFF06
:10204000C0F1020120461FF03AF8FFF79DFFFFF7AD
:10205000F3FBAE420CD270BD44F00074CEE744F006
:102060008074CBE780209960FFF7F6FB052805D048
:10207000BDE870400121002000F028B93546DAE7BC
:102080000090005000E0015040420F0080841E008C
:1020900000000150304B314A984251D020D8A3F56E
:1020A000B703A3F55863984246D00DD82C4B9842FD
:1020B00031D02C4B984239D02B4B4FF40021984211
:1020C0001DD00023516622E0284B4FF40021984296
:1020D000F7D1274BD3F8BC30516623F0407316E09C
:1020E000244B984230D0244B984231D0234B4FF4AC
:1020F00000219842E5D11E4BD3F8C830ECE71C4BC9
:10210000D3F8A030516623F0407343F000734FF0D2
:10211000B442936070474FF40021154BD3F8A030C0
:10212000516623F0407343F08073F0E7104BD3F80F
:10213000A0304FF40021CFE70D4BD3F8B830F8E7CB
:102140000B4BD3F8C030F4E7094BD3F8CC30F0E7B1
:10215000074BD3F8D030ECE7C0EA210100900050E3
:1021600080841E0000093D0040420F000024F4005E
:102170000080E00F0048E801005A620280BA8C013A
:10218000024A536B0342FCD1704700BF0040095024
:10219000044A4178536F23F4407343EA01235367A1
:1021A000704700BF004000500E4A10B51369044646
:1021B00043F00403136103F02BFF1EF0A2FF0A4B50
:1021C0005B6E5B0142BF094B094AC3F8202430BF54
:1021D0001EF098FF03F056FF1CB9BDE81040FEF753
:1021E00083BB10BD00ED00E00080005000E0035014
:1021F0000000FF0F0C4A10B51369044643F00403B6
:1022000013610A4B5B6E5B0142BF094B094AC3F87D
:10221000202403F0FDFE30BF03F034FF1CB9BDE8FD
:102220001040FEF761BB10BD00ED00E000800050E3
:1022300000E003500000FF0F034A0179D36E23F042
:1022400030030B43D366704700400050F8B5044696
:102250001C4BD3F88420D106FBD4D3F88430C3F3CD
:1022600081139C422CD0FEF725FB012C064602D19F
:1022700021461EF024FF1EF07AFE4FF00072124B32
:1022800007465A6620461EF040FF4FF480630D4D0E
:10229000621E93402B676B6E9A0103D4D5F884308D
:1022A0009B060AD538461EF066FE022C08D1304641
:1022B000BDE8F84000211EF002BFD5F88430EAE7FF
:1022C000F8BD00BF004000500060005010B50C4643
:1022D00008B9FEF7EFFA074B21461B783BB1064BD6
:1022E000984204D80120BDE81040FFF7AFBF02209C
:1022F000F9E700BF1D250020005A62020278034B57
:10230000012100201A70FFF7E1BF00BF1D2500204A
:102310004FF0004238B5244B244C5A664AF6CD3370
:10232000656C014605F00105236428BB0120FFF719
:1023300027FF6368DB0715D51D4B586008461D4B0A
:10234000226BD2070CD4984208D1072415B1174B41
:10235000194A1A6429F091F9204638BD0130EFE797
:102360009842F2D00024F1E70132236B13F0080306
:1023700005D08A42F8D1E8E700220E49F5E78A4203
:10238000E3D020210A4A91620121A2F580525160D6
:102390000649084A886A800603D49342D5D001339F
:1023A000F8E79342DDE700BF00900050004009507D
:1023B0000060095040420F003254FFFF4FF00042CE
:1023C00038B5164B01465A664AF6CD33144C154AB9
:1023D000656C236443780B205B0043F00103D363F7
:1023E000FFF7CEFE63688A7823F4F87343EA02139A
:1023F0006360CA784B7943EA0223A3600A798B7938
:1024000043EA022323610878FFF782FFEB0744BF0A
:10241000054B236429F031F9012038BD00900050AC
:1024200000400950004000503254FFFF4FF000427E
:10243000124B70B55D6E03F580535A664AF6CD3384
:1024400004460F4980204E6C0B64FFF799FE0B6A1F
:1024500023F00F030F2C94BF234343F00F030B62B1
:10246000F30744BF074B0B64002DA2BF4FF000429F
:10247000054B5A6629F001F970BD00BF008000507D
:10248000004009503254FFFF00A000504FF00042BE
:10249000104B70B55D6E03F580535A664AF6CD3326
:1024A00004460D4980204E6C0B64FFF769FE0B6AF1
:1024B00023F4F85343EA04230B62F30744BF074BAA
:1024C0000B64002DA2BF4FF00042054B5A6629F065
:1024D000D4F870BD00800050004009503254FFFF16
:1024E00000A000502DE9F04105460F461E469046DB
:1024F0004AB101233022194C8B4002FB004436B311
:1025000004F5825423600F21072F05EB450388BF94
:10251000A7F108044FEA0313114895BFBC00A400BB
:1025200004330C3308FA04F2A14018441EF0EEFD07
:10253000B8F1000F09D101233021084ABB4001FB4B
:1025400005223EB102F582521360BDE8F08104F528
:102550000154D7E702F50152F6E700BF00C003506F
:1025600030C0035010B5152002F06AFB0024FF2292
:10257000064B21465C6520209A625C60FFF742F8BA
:102580002146BDE810402120FFF73CB80000045070
:10259000044A054B002908BF1346012282401A60F5
:1025A000704700BF401004504020045010B5012176
:1025B00004462020FFF726F801212120FFF722F80A
:1025C0000122114B15205A60227812069A60617818
:1025D000A27842EA01429A61FF229A6200229A633B
:1025E0001A644FF000425A654FF0FF3203F5005372
:1025F0001A6502F045FB1520E17802F04FFBBDE8BB
:102600001040152002F02EBB00000450F8B5012543
:10261000C3B2D1F800E091F80AC00F7B0C469D4090
:10262000CB7A1D491D4E0D65810001F1A04101F5D8
:102630008821C1F804E04FF0300E0EFB00601B054E
:10264000617B43EA0C4343EA475322F003020166ED
:10265000C36502671EF092FC114B5D65237A13B1CE
:10266000336C2B433364637A13B1B36B2B43B36383
:102670002279A37943EA0243074A93616179E379B6
:1026800043EA014306498B61044B55639D64BDE8F1
:10269000F8401EF079BC00BF002004500000045038
:1026A0000010045010B50124C0B284401EF066FC36
:1026B000044B5A6D22EA04025A659C62BDE8104040
:1026C0001EF062BC0000045010B50124C0B284406A
:1026D0001EF054FC074BDA6A224208D15B6B9C4324
:1026E0000CBF012400241EF04FFC204610BD002426
:1026F000F9E700BF000004504FF48032054B9A66A2
:1027000041F6713203F51C33DA63012203F50053FD
:10271000DA6070470090005041F671320121064B9B
:10272000DA6303F50052D1600022DA634FF480329D
:10273000A3F518339A66704700000350013831281A
:102740009ABF024B185C0020704700BFD1C8020836
:1027500038B5C2F30625044602F0070241B942EA41
:10276000052242F440220634074B43F8242038BDAA
:10277000114628461EF0DAFC02462846FFF7DEFF27
:10278000163442EA0022EFE7008003504FF4803213
:10279000064B5A6603F5E6239B69C3F385128270E4
:1027A00003F03F021B0B4270037070470090005013
:1027B00040F6B732064B5B689BB293429FBF4FF423
:1027C0007A72B3FBF2F3034AD05C88BF00207047F3
:1027D0000080E00F03C90208014B986CD96C704768
:1027E0000080E00F0120034B9B680A3303F01F03B6
:1027F000984070470080E00F70B5054616461C46AD
:1028000021B94FF42070FEF717FF0146402C1BD072
:1028100003D8DCB1202C1BD070BD602CFCD104236C
:1028200003FB06F2530803EB4113B3FBF2F3094A2F
:10283000203B02EAC303AA6822F06002AA60AA68E9
:102840001443AC60EB61E7E70623E9E71023E7E711
:102850000823E5E7F8FF7F00012100F5805310B55C
:10286000596040F6AA6341F2050243610023094C16
:102870008360C365C26000F500520361C361C36435
:102880009464054C8365A04204BF036543655160B1
:1028900010BD00BFFFFF010000C0055070B50D4620
:1028A000FFF7DAFF012300F580567360AB7C044626
:1028B0001BB1836843F080438360EB7C5BB1244BA6
:1028C0009C4202BF2A7DA3F51033C3F8C821E36DF3
:1028D00043F08003E3652A8A6B7B20461343EA8931
:1028E0001343E3602B7BD5E90112FFF785FF6B7D76
:1028F0001BB1A36843F48033A360AB7D1BB1A36815
:1029000043F40043A360EB7D2A7E1B07120502F40B
:10291000E00203F0E0431343A3656B7E9A1E012A95
:102920004FF0020209D80B49032BC1F8202709D127
:102930000423F3652B78636170BD0749012BC1F84F
:102940002027F4E7042204F50053DA65F2E700BF1C
:1029500000C0055000D0035000E0035038B50D46CC
:10296000FFF77AFF012200F580535A602B8AA97B7A
:10297000826843F0010343EA812313438360836841
:102980002A7D044643EA42738360AB7C5BB1194BFA
:10299000984202BFEA7CA3F51033C3F8C821C36D87
:1029A00043F08003C3652B7B2046D5E9011243F435
:1029B0008053E3601EF0D7FB6B7B0BB11023636188
:1029C0006B7D1BB1A36843F48033A360AB7D1BB167
:1029D000A36843F40043A360EB7D2A7E1B07120526
:1029E00003F0E04302F4E0021343A3652B78636134
:1029F00038BD00BF00C00550034B5A68D20702D54E
:102A0000DA69002AF9D1704700800A50054B9A68AC
:102A10009107FCD45A689207F9D4DA69002AF6D1F2
:102A2000704700BF00800A5008B5FFF7E5FF02229B
:102A3000014B1A6108BD00BF00800A5008B5FFF7BE
:102A4000E5FF0122024B03F580514A601A6108BD7F
:102A500000800A5008B5044B5968012903D1FFF7DB
:102A6000E3FF024B596008BD00800A5000A00A50E5
:102A700010B5064CFFF7CAFF6368012B03D1FFF7BF
:102A8000E9FFFFF7C3FF0378E36010BD00800A5041
:102A9000B8B94A680B7812B1127843EAC2034A788F
:102AA00043EA42038A6812B1127843EA82138A78B1
:102AB00043EA8203CA6812B1127843EA4223014A08
:102AC0009364704700800A5008B9014B59647047FD
:102AD00000900A5008B9014B5964704700A00A5091
:102AE00008B9014B1964704700A00A5010B9024B95
:102AF000186C70470020704700800A5048B911B127
:102B0000012903D07047044BD86C7047024B186DF5
:102B100070470020704700BF00800A5040B911B1D3
:102B2000012903D07047034BDA647047014B1A65E3
:102B3000704700BF00800A5010B9024B586D7047B3
:102B40000020704700800A5038B50446054D28F033
:102B5000B8FD0FCC0FC594E8030085E80300002002
:102B600038BD00BF3816002047F6FF739A42F0B513
:102B70006FD002296FD8394B5B5C012B6BD8384D75
:102B8000DF0005EBC30415F83330A178012B13D116
:102B90000025E078401AA84202D80844C0B2F0BD2F
:102BA000431B6668A0EB530336F913609642D4BF0B
:102BB0001D4603F1FF30EEE760680028EFD0B0F962
:102BC0000040944204DBB0F902409442B8BF14467E
:102BD00083883D44FF2B19BFC8224FF0280CB0F961
:102BE0000620B0F908C0A2EB04030CBF01260026A2
:102BF00093FBFCF333446E781BB29E4201DD002B45
:102C000001DA731E1BB24FF47A7C01339BB2071DAD
:102C10005D1E2DB24FEAC50E00EBC505EA88AD6812
:102C20009E4214FB025222EAE27202F15C02B2FB03
:102C3000FCF204DD37F8335001339542E8D200EB63
:102C40000E039888904228BF1046884238BF084635
:102C5000A4E7FF20A3E70020A1E700BF06C9020800
:102C6000381600200229F0B555D82C4B585C0128A5
:102C700051D82B4C04EBC00114F830004B680128EC
:102C80000FD1C8788C78904294BFC4EB0001C4EB9C
:102C90000201001BCAB28242C8BF002233F91200EF
:102CA000F0BD002B37D08878904202D3B3F90200F0
:102CB000F6E7CC78B3F900009442F1D94C789988C2
:102CC000013CA1F1FF06714203F10405E4B2714138
:102CD00003F10C07CEB2B44216D805EBC1014FF494
:102CE0007A756A43B1F902404968521A04EBD4710B
:102CF00002EB610292FBF4F29042D1DBB3F90200E5
:102D00009042CDDC10B2CBE737F831C04E1C944571
:102D1000E3D33146DEE70348C2E700BF06C9020835
:102D2000381600200080FFFF08B50448FFF70CFFAD
:102D3000BDE80840012028F0C8BC00BF0CC902084B
:102D400000487047942900207FB50222084B0949AA
:102D5000CDE901234FF04073CDE90313052301A909
:102D60004FF0FF30059328F0E4FC07B05DF804FB5A
:102D7000006A18000003040008B5B0B14FF4806287
:102D80000B4B9A661EF06BFD4FF098435A6CD202C3
:102D9000FCD54FF48062586D064B10F470209A6693
:102DA00004D0BDE808401EF014BA212008BD00BFC1
:102DB0000090005000A000502DE9F0418CB08846F2
:102DC000DDE912761D460446002847D0002945D08B
:102DD000002F43D0002E41D013F00F033ED12048E6
:102DE0002049A360002A08BF0146E361C4E900133B
:102DF000404609A91EF0E9FA68BB204609991EF071
:102E000025FD294620461EF021FD6946404600F07A
:102E1000DFFA00BB694620461EF004FD404603A9C8
:102E20001EF0D2FBB8B9204603A91EF0FBFC0697A2
:102E30000127204645F0005506A9079708951EF082
:102E4000F1FC204609A909960A970B951EF0F4FC9F
:102E50002046FFF791FF0CB0BDE8F0812120FAE792
:102E600000010004000101042DE9F0418CB0884606
:102E700016461D460446129F00284BD0002949D013
:102E8000002A47D0002F45D00B68103B102B41D8AB
:102E9000214A22FA03F3D9073CD500231F4A836055
:102EA000C0E90023C36109A940461EF08EFA70BB39
:102EB000204609991EF0CAFC294620461EF0C6FC91
:102EC0006946404600F084FA08BB694620461EF079
:102ED000A9FC404603A91EF077FBC0B9204603A910
:102EE0001EF0A0FC06960126204606A945F00055D6
:102EF000079608951EF096FC094B204609A90997EC
:102F00000A960B931EF098FC2046FFF735FF0CB095
:102F1000BDE8F0812120FAE701010100000004046E
:102F200010000020F0B50C4617461E46054695B029
:102F3000002874D0002972D0002A70D0002B6ED0E7
:102F4000036B0F2B5BD80023364A3846C4E90023B5
:102F5000A360E36111A91EF038FA00285BD1204676
:102F600011991EF073FC296B20460F2984BF01F0D4
:102F70000F0110311EF06AFC384602A900F028FA51
:102F8000002848D1204602A91EF04CFC384605A96D
:102F90001EF01AFB00283ED1204605A91EF042FC77
:102FA0000122214B089509920A932B6B05F1100021
:102FB00003F00F0141F000510B900F2B0C920D917B
:102FC0000E900F9243F00052109226D90A9B08A946
:102FD00023F0005320460A931EF024FC0BA9204640
:102FE0001EF020FC0123119612930F4B204611A9CD
:102FF00013931EF021FC2046FFF7BEFE0BE000F10C
:103000002003019000930122102339462046FFF748
:10301000D3FE002897D015B0F0BD0EA9DFE7212020
:10302000F9E700BF00000404100000202DE9F04F74
:103030009BB00C4690461F460546DDF89090002850
:1030400000F0B280002900F0AF80002A00F0AC80D0
:10305000002B00F0A980026B02EB09031B09B3EB04
:10306000121F02F00F0600F0978000234F4A8B607A
:10307000C1E90023CB61404617A91EF0A6F903461B
:10308000002840F0858006EB090B204617992BF0AD
:103090000F0A1EF0DBFB514620461EF0D7FB4046D0
:1030A00002A900F095F90346002871D1204602A933
:1030B0001EF0B8FB404605A91EF086FA034600281C
:1030C00066D14FF00108019005A920461EF0AAFB29
:1030D000374A204608A90895CDF824800A921EF0A8
:1030E000A1FB46F00051AAEB060605F1100346F0DD
:1030F00000560B93CDF830800D910E97CDF83C80A3
:1031000010960D99204621F000510D910BA90093C6
:103110001EF088FB20460EA91EF084FB019B244A6A
:103120001193AAF1100343F00053CDF84880139394
:1031300005F120031493CDF854801692139B20467A
:1031400043F080431393139B11A923F0005313936F
:103150001EF072FB204614A91EF06EFB144A17A93C
:1031600020461795CDF8608019921EF065FB204629
:10317000FFF702FEAAEB0B0149440190ABEB0A02F8
:103180000098394420F0B5FD019B2A6B4A442A631C
:1031900018461BB0BDE8F08F10304A46394630441F
:1031A00020F0A7FD0023F0E72123F1E7030200044C
:1031B000100000202DE9FF474FF000080E4617468B
:1031C0000446CDF80080002859D022B900252846B1
:1031D00004B0BDE8F087002951D032F0030902F0B5
:1031E000030A1FD04FF0E063C0E9003801230191CA
:1031F000C0F808800293C0F81C8049F0005301A970
:1032000003931EF019FB494620461EF01FFB204683
:10321000FFF7B2FD054628B14A464146304620F048
:1032200000FED4E7BAF1000FD0D04FF000084FF005
:10323000E063C4E900380123CDF804D00293114BB8
:10324000204601A9C4F80880C4F81C8003931EF02E
:10325000F3FA042120461EF0F9FA2046FFF78CFD10
:10326000054608B13A46D8E7009A4E44EB000135CE
:1032700022FA03F3AA4506F8013BF7D1A6E7212578
:10328000A5E700BF04000020F0B50F4616461D4616
:10329000044693B010B9212013B0F0BD0029FAD034
:1032A000002AF8D0002BF6D0002331461A463846C3
:1032B0001EF030F80028EFD1304602A91DF0C6FFFD
:1032C0000028E9D1EB68022B0AD039683F48029AFE
:1032D00081426B6902D01830814270D19A42DAD8AB
:1032E0002B68002BD7D14FF060623846C4E9002329
:1032F000A360E36101A91EF068F80028CCD1019910
:10330000204621F4F06101911EF0A0FA694628469A
:103310001EF05BF80028BFD1204600991EF096FAF7
:10332000384609A900F054F80028B5D1204609A96B
:103330001EF078FA38460CA91EF046F90028ABD1E9
:1033400020460CA91EF06EFAEB684BB1284606A980
:1033500000F03EF800289FD1204606A91EF062FA30
:10336000304603A91EF030F9002895D1B368DA047D
:103370000CD59B0427D50621F36932691B6801FB34
:1033800003225B0043F0005303920593204603A9F8
:103390001EF048FA28460FA91EF016F900287FF4FF
:1033A0007BAF20460FA91EF047FA03252046FFF702
:1033B000E3FC01287FF470AF013DF7D16CE7B3EB7C
:1033C000420F8DD267E7292066E700BF200000B0DA
:1033D00090B189B101234B60C368013B012B08D830
:1033E0008269064B1AB10A6000208B607047044A5C
:1033F000F9E74FF00053F7E721207047080000205D
:10340000B8DA020870B50E46154604468AB00028A0
:103410005BD0002959D0002A57D0012329461A46EB
:1034200030461DF077FF00284DD1B36813F4C04F2C
:103430004BD0AB6803F4C043B3F5005F45D1254BD7
:10344000A060C4E90030E06107A930461DF0BDFF6F
:10345000002838D1204607991EF0F8F9304601A916
:10346000FFF7B6FF78BB20461EF0DCF9304604A912
:103470001EF0AAF838BB204604A91EF0D3F9EB6869
:103480001BBBAB6803F4C043B3F5005F1DD16946B5
:1034900028461DF006FFB0B9009B6A699A4216D310
:1034A0002A6943F0005307920122204607A9089297
:1034B000032509931EF0C0F92046FFF75DFC0128A3
:1034C00001D1013DF8D10AB070BD2120FBE71D20DC
:1034D000F9E700BF0000010206289ABF014B185C03
:1034E00000207047C0DA020830B5154B87B0029350
:1034F000144B0390049346F611030D46059300F018
:1035000077F91428044616D168461EF055FA4FF094
:10351000A843032202A95A6319601D619A63DA6BFA
:103520009207FCD1142C02D168461EF053FA00F029
:1035300093F9044601E00028E9D0204607B030BDE9
:1035400050160020040000202DE9F04FB1B00546D0
:103550008C469E46E8466F4EDDF8EC90409C06F1A6
:10356000100A474630687168083603C75645B846A2
:10357000F7D13E9B03EB0208C8F1000A0AF00F0ADC
:10358000B9F1000F00F09D80C9F1000707F00F07A7
:103590000121DDF8FCB044F00050C4F11006CDF874
:1035A00010B005910690300200F4F85040F0210070
:1035B0000790B9F1000F40F08680CDF820D047F099
:1035C0000050002D00F08480099121210A9041EAE9
:1035D00007210B9142F00050CDF830C03D9B08A967
:1035E0004FEA0A2C0D910E904CF041000F90109371
:1035F000002A75D13E9B119143F0005312933C9BDE
:103600001390149310AB1593434B444A169340F612
:1036100011031793424B0021002D08BF1346189346
:1036200014AB19933F4B10221A9311231B931CAB1D
:10363000184620F0F6FB01221D92002246F080463B
:1036400003461E96239205B9EB46102CCDF880B0A8
:1036500024AE4BD1012322460021304621932294EF
:1036600020F0DFFB20AB002125938F4218BF3346AB
:1036700047F0804226923A9A2CA828922993B2FACF
:1036800082F35B0949EA837310222B912A9320F07D
:10369000C8FBB9F1000F00D028AED04448F08043F9
:1036A0002CA918A82D962E93FFF71EFF30B92DB91F
:1036B0000346A34225D1002818BF2C2031B0BDE815
:1036C000F08F102764E7CDF820E049F0005078E74C
:1036D000002C3FF479AF04A9099101210A9076E703
:1036E0003E9B0CAA11924120129388E710220021E0
:1036F00030462193229420F094FB002CB2D1012378
:10370000B1E703F1C0026A4412F8C02C0133104340
:10371000CFE700BFC7DA020810000020DCDA020899
:10372000E0DA020804000020F0B5C0299FB0DDE90E
:10373000244557D0B1F5807F04D0802948D0292076
:103740001FB0F0BD01265CB140F234470294102452
:1037500003960494212401970594069502AC0AE08F
:1037600040F21447029410240396049421240594F3
:1037700001240197069507940125102408940995C2
:103780000A9221220B950C940D92174A0AAD0E92C3
:10379000164A0F95109242F6110211921293139548
:1037A0001494159201AA1692D3B112AB1793042365
:1037B00018931123199316AB1A901B9340F611031B
:1037C000C9081C911AA806A91D93FFF78DFEB7E73B
:1037D000012614B94FF48267C4E74FF48667B5E752
:1037E0000EABE3E70F20ABE7D8DA020810000010B9
:1037F00038B5164B5A6E42F004025A66D3F880224E
:1038000042F00102C3F88022114B5B68C3F3080346
:1038100043B14FF0A842D36B13F0430FFBD11424F4
:10382000204638BD4FF0A843DC6B14F04304FBD1B5
:10383000084D2B681BB90421284603F01FFB2B6899
:10384000013343F000432B60EAE700BF00800050E3
:1038500000ED00E050160020014B00205B6870472F
:1038600000ED00E0012300F01F02A0F50620094949
:10387000A0F550604009934051F820201A4341F8C8
:103880002020054951F8202022EA030241F8202097
:10389000704700BF68160020541600200121A0F5D3
:1038A00006230E4AA3F550635B0900F01F00814018
:1038B00052F82300014342F823100949D1E90030AE
:1038C000034488680344C868096903445B1802BF5D
:1038D000C2E90033C2E90233136170475416002075
:1038E000681600202DE9F04FA9B003921D4604464A
:1038F0000822339ECDE90401414021FA02F34B40F6
:10390000980702F1080218BF9B00202A1C44F4D13A
:103910008123B4FBF3F303EBC313E41A734B04F5F5
:1039200006241B7804F55064002B3ED1FDF72AFBDA
:10393000074620B16FF0910029B0BDE8F08F014635
:10394000402208A820F06DFA4022394618A820F03D
:1039500068FADFF8B481DFF8B491C3460BF10F0ABF
:10396000CDF800A0102208A95B46D9F8000027F086
:1039700057FC0022014608F1100808AF914246D1D9
:10398000CDF800A05B461022D9F8000018A927F056
:1039900050FC4FF0000A834618AFD34541D1544B39
:1039A0009845DAD10122514B1A704FF0810A4FF03D
:1039B0000008DFF85CB1A4F50627A7F550635B09A2
:1039C0005BF8232004F01F01CA40D2073DD4494AC6
:1039D00052F82330CB40DB072AD5B8F1000F08BFDF
:1039E000A0468123A7F6FF47B7FBF3F303EBC3130E
:1039F000FF1A07F50624BAF1010A04F55064DAD17A
:103A0000039BBBB1B8F1000F14D0444619E057F83E
:103A1000040BCDE90612FFF725FF079A069901323C
:103A2000ACE757F8040BFFF739FF0AF1010AB4E7D6
:103A3000039B13B96FF08B007EE7B8F1000F18BF3E
:103A40004446349B00201C6076E7329B13B1002370
:103A5000329A13600EB1002333601023DFF8AC906C
:103A600000932A4600232146D9F8000015F03EF9BC
:103A700060BB32992A68204BC9B99A4206D02146C8
:103A8000D9F8000015F0CAF90028D3D1D5E90223EE
:103A9000DDE90410834208BF8A42A2D1039B002BB8
:103AA000CFD06B68012BCCD16FF0840044E710209D
:103AB00032999A420860E2D1002EE7D0334621467F
:103AC000D9F8000018AA15F065F948B10B4B9842D7
:103AD000D5D00B4B9842D2D00A4B9842D6D029E78A
:103AE000329A336812689B1A3360CFE71E25002094
:103AF0000071080054160020105D175EFFDF00F013
:103B000011E000F0FEDF00F0006D08001828002032
:103B1000681600202DE9F04F87B082468946984606
:103B20001646DDF840B02AB1002B4FD040F26C733E
:103B30009A424ED8BBF1010F4ED8002406F110076F
:103B40003946012005941EF08FFE0546002846D018
:103B500021463A4620F065F905ABCDE901430094D2
:103B60002B46012250464946FFF7BCFE044680B171
:103B700010F18C0F08BF6FF08D043A4600212846E3
:103B800020F04FF928461EF051FE204607B0BDE850
:103B9000F08F144BC5E902A92B60C5F804B02EB113
:103BA0003246414605F1100020F0A3F8059E0E486C
:103BB0003B462A463146006815F000F818B93046F1
:103BC000FFF750FED9E76FF09104D6E76FF0860457
:103BD000DBE76FF09104D8E76FF08504D5E76FF06D
:103BE0008C04D2E7105D175E182800202DE9F04301
:103BF0008DB08146DDE914780E4615461C469BB112
:103C0000B8F1000F05D16FF0860630460DB0BDE863
:103C1000F083002FF7D0B7F1005FF4D3C3F1005366
:103C200003F580239F42EED81022002108A820F03F
:103C3000F8F8002207AB029305AB019306AB3146BF
:103C40000093484608ABCDE90522FFF74BFE064638
:103C50000028DAD1059BA4B1AB4215D853EA05047C
:103C6000D1D1069B0B48C8F8004000943A4607990A
:103C700000682B4415F03AF8002818BF6FF0910641
:103C8000C3E7AB42EDD2BEE75B1B9C4228BF1C469C
:103C9000E7E700BF1828002030B58DB00C46054678
:103CA0001022002108A820F0BCF8002207AB0293E4
:103CB00005AB019306AB21460093284608ABCDE93E
:103CC0000522FFF70FFE0446D8B9099B012B1BD034
:103CD000079D104B2946186815F0A0F8B8B90122C5
:103CE000A5F506230C49A3F550635B0905F01F00F9
:103CF000824051F823004240284641F82320FFF734
:103D0000CDFD20460DB030BD6FF08404F9E76FF0B3
:103D10009104F6E718280020681600202DE9F04FDE
:103D200093B00446DDE91E75DDE920689346DDE9C0
:103D30001C028A46DDF8889029B96FF08604204677
:103D400013B0BDE8F08FBBF1000FF6D00FB9002D16
:103D5000F3D108B9002AF0D116B9B8F1000FECD1AF
:103D6000B9F1000FE9D02C4A934251D12388B3F521
:103D7000105F4DD12022002102A820F052F820220D
:103D800000210AA820F04DF802A81DF050FA10B149
:103D90006FF09204D3E720465A4651460AAB00F032
:103DA0000FFA04460028CAD10A981DF06BFE04469B
:103DB0000028C4D115B9C9F80050C0E7B74224D2D1
:103DC0007B199E4221D24545B7D839462A4630460E
:103DD00020F00DF8374615F00F0AAED1CDE9007688
:103DE0002B4652460AA902A8FEF7E6FF074600281E
:103DF000E1D042465146304620F013F8012FC9F871
:103E000000A0C5D16FF08B0499E74545E3D994E74D
:103E10006FF0850493E700BF004440042DE9F047AC
:103E2000C2B00C4607460021154601A820229A463A
:103E30004A9EDDF83091DDF838811FF0F2FF202234
:103E4000002109A81FF0EDFF2022002111A81FF07A
:103E5000E8FF2022002119A81FF0E3FF00218022A3
:103E600022A821911FF0DDFF3CB135B12EB1B9F18F
:103E7000000F02D0B8F1000F05D16FF08604204684
:103E800042B0BDE8F0872188628801F4E043B3F5D1
:103E9000804FF2D02C4B2D483B4043F010638342BF
:103EA00002D06FF08504EAE7D31DBAEBD30F4FEAD7
:103EB000D307E2D34D9B9F423FD847F2121399425A
:103EC000EFD1B2F5807FECD1214B4B98099384233D
:103ED0000230013620F0030016937B000D960E9001
:103EE000129320465246294621AE01AB159600F0AA
:103EF00067F904460028C2D10B9B119043F400538C
:103F000019A80B931DF093F9D0B911AB09AA01A917
:103F100019A8FFF7B9F9054610B14828ADD1C0E797
:103F20003A46314648461FF0E4FE2B4673550135AC
:103F3000842DFBD1C8F80070A1E76FF089049EE7DB
:103F40006FF092049BE700BF0000FFF6000002093B
:103F5000200000802DE9F0410D4614461E46C2B0F7
:103F600010B96FF086000DE00029FAD0002AF8D0D1
:103F7000002BF6D0038803F44F42B2F5824F04D0F1
:103F80006FF0850042B0BDE8F081DAB2122AF7D1B5
:103F900023F0FF03B3F5E24F27D143883360FBB929
:103FA000E3003360B3F5807FEAD10023184643492C
:103FB0002E19214411F8014D16F8012D1043121B42
:103FC0000CBF4FF0FF340024B54203EA040343EA78
:103FD0000203EFD10028C4D0002BC2DA0020D1E7C1
:103FE000DA1DB4EBD20FDDD0BBE7B3F5824F61D160
:103FF0000B78042BB5D12022002168461FF011FF59
:1040000068461DF014F9002851D100278422394652
:104010000DEB020020971FF004FF202201234FF038
:10402000880839460DEB0200013C8DF880300135DF
:104030001FF0F7FE202239460D9410A8E4000C95DD
:1040400064081FF0EEFE20AD2022394618A8149512
:10405000CDF854801FF0E5FEE02CCDE91C5834600B
:1040600003D0B4F5807F7FF47CAF154B0734089301
:1040700010934FF400530A934FF48043E4081293D3
:1040800008AA18AB6846640010A91994FFF7FCF859
:1040900033680733DB085A0033B10021531E013B5C
:1040A000297005F10105FAD2002897D059E76FF081
:1040B000920067E76FF0960064E700BFE4DA020859
:1040C00020000080F8B5134642880C460732072AC4
:1040D0004FEAD20101D0A1426DD146680588C76878
:1040E0002022184600211FF09CFE360A034626B106
:1040F000012E11D06FF08B00F8BD002C5BD041F287
:104100000102954205D0B5F5885F02D0B5F5905F04
:104110001BD15C600020EFE7C660002C4BD041F261
:10412000010295420BD15C60B90707F001021FD470
:10413000002AEFD19A6842F080729A60EAE7B5F5FA
:10414000885FF0D0B5F5905FEDD0B5F5105F0AD17E
:10415000182C03D0202C01D0102C2CD1C3E9004402
:10416000002ED7D0E0E705F44F42B2F5824F02D0DF
:104170006FF08500C0E7EAB2122AF9D1202CF7D1FE
:104180000E4A25F0FF05B5F5E24F1A600CD0B5F5E3
:10419000824F10D14FF4005217F4705F09D017F41A
:1041A000864F04D09A60E3E74FF48042F4E742F48C
:1041B00080629A60D4E76FF086009DE7200000805F
:1041C0002DE9F041174600221C4643688CB01B0ABB
:1041D00080460D46009204D0012B56D06FF08B0024
:1041E0008EE0008820F0FF03B3F5824F15D1B8F8B8
:1041F00002200732D20800921DF050FC002800F087
:10420000E1800B78042B05D1013FB7EB420F05F19C
:10421000010503D06FF0860072E00097009E2246F1
:1042200031464046FFF74EFF002869D1FA1CC4E929
:10423000030522F003026261002E00F0A480202218
:10424000002101A81FF0EDFD3146404601AAFFF70D
:1042500039FF002840F097802368019A9A4240F085
:1042600092806368029A9A4240F08D80A368039A14
:104270009A4240F08880A369079A9A4240F083806E
:10428000E369089A9A423BD07DE0032FC2D90B78AC
:10429000012B40F09A80497800294BD0F739082942
:1042A0009CD801A353F821F011430008CD42000827
:1042B000DD41000807430008DD4100082B430008EA
:1042C000DD4100081B430008234300084FF410564B
:1042D000F8253F4F1C22002102A81FF0A2FD032356
:1042E0000197CDE90435039601AA09AD134603CB26
:1042F000AB42206061601A4604F10804F6D1002048
:104300000CB0BDE8F08110274FF08076FA25E1E788
:1043100020274FF00076F725DCE7FE252C4F2D4EA9
:10432000D8E7FF252A4F2C4ED4E74FF41056FC2532
:10433000274FCFE72B2F7FF66DAF202220461FF0AF
:1043400070FD05F110032361AB070DD001AB05F142
:1043500028061A4628686968083503C2B54213461C
:10436000F7D1286801AD10606B68103F2360AB681F
:1043700069466360EB682046A36001236761E360E0
:104380001CF064FF28B12022002120461FF049FDC7
:1043900040E7B8F80030009E03F44F42B2F5824F78
:1043A0000ED1DAB2122A0BD123F0FF03B3F5824FFC
:1043B00006D1730062691C339A42BFF43DAFE2E755
:1043C0003346F7E76FF085009AE76FF0910097E7C3
:1043D0002000008000440002004400032DE9F04F5B
:1043E0008FB0DDF8608081460C4692469B461A9F4E
:1043F000B8F1000F05D16FF0860420460FB0BDE87C
:10440000F08F002FF7D00028F5D02022002106A839
:104410001FF007FD06A81CF00AFF10B16FF0920410
:10442000EBE714F47C1FC4F305452AD0102DE2D825
:10443000199B9D4233D81D4B24F47E149C4231D1EC
:10444000002302AECDE90233CDE9043352465B4688
:104450004946009606A8FEF707FD044698B92A4685
:10446000314640461FF045FC234633550134102C9D
:10447000FBD100243D6006A81CF0E3FE0028BCD060
:10448000CCE71025D4E7212806D0012814BF6FF00F
:1044900092046FF08B04EEE76FF08604EBE76FF0A9
:1044A0008904AAE76FF08504A7E700BF0002C003F4
:1044B00070B50E461446054610B96FF0860070BD03
:1044C0000029FAD0382200211FF0ABFC094B24F45C
:1044D0007E129A420AD13388B3F5105F06D1C4F335
:1044E0000543102BE9D800202C60E8E76FF0850029
:1044F000E5E700BF0002C003F0B50F4616461D46B3
:1045000004468BB088B302B97BBB2022002102A8ED
:104510001FF087FC02A81CF08AFE20B16FF0920405
:1045200020460BB0F0BD2368114A23F47E1393425A
:1045300015D135B9002402A81CF083FE0028EFD065
:10454000ECE733463A46009502A9201DFEF76EFDC2
:10455000012807D00028EDD06FF09204EBE76FF050
:104560008804E8E76FF08B04E5E76FF08604D7E78F
:104570000002C0032DE9F0418CB0884616461D4666
:104580000446129F002840D0002A3ED0002B3CD089
:10459000002F3AD0102B036828BF102513F47C1F7E
:1045A000C3F3054202D0954228BF15461A4A23F4A8
:1045B0007E1393422CD12022002104A81FF031FC4D
:1045C000002304A8CDE90033CDE902331CF02FFE0F
:1045D00040B96B46424604A9201DFEF7A3FC30B14A
:1045E00000233B606FF092000CB0BDE8F08104A89E
:1045F0001CF027FE04460028F2D12A4669463046C0
:104600001FF077FB20463D60EEE76FF08600EBE79A
:104610006FF08800E8E700BF0002C0032DE9F04119
:104620000E4617469846044600B3F9B1F2B19822F7
:1046300000211FF0F6FB3146069A04F16000FFF7F7
:1046400037FF0546A0B92346424639463046FFF7B4
:10465000B7FD054660B97288D208A2F11001102991
:10466000E26503D80A4BCB40DB0704D46FF0860524
:104670002846BDE8F08163691C329342F6D304F109
:104680002003184621691FF034FB2061F0E700BFCA
:10469000010101000023C36001F1380303612023FD
:1046A0000A6843618B6D0B4922F47E128A42436093
:1046B00003D001F580718A4208D1102B01D0182B4C
:1046C00002D1036000207047202BFAD06FF08800E1
:1046D000704700BF0001C00370B505460C461CF0D2
:1046E0004DFC0C2D064616D80C2D18D8DFE805F029
:1046F0001B1B171B1B2A171B2E17311734000123F6
:10470000194AAB4013421DD1132D2AD00D2D06D1CD
:104710004FF4F06022E0A5F10D03122BEFD9002336
:104720002380212409E08020FDF7E4F94FF6FF7390
:10473000984220800CBF0E24002430461CF024FC3C
:10474000204670BD002323800F24F6E74FF48060DD
:10475000EAE74FF44060E7E74FF4C060FDF7ACF9DB
:10476000E4E74FF4E060F9E7008023D4B8B10368D0
:1047700013F4E07F03F03F00C3F382120AD0012A52
:104780000DD1084B41B103F58053012282401A60DC
:1047900000207047044BF5E703F50053F5E70E20C2
:1047A000704700BF688000506480005030B58BB007
:1047B0006D46774C0FCC0FC554F8043B68462B6010
:1047C0004FF07E6393F89C306D46FF2B08BF2C237F
:1047D0008DF80130FDF7CCFA3220FDF707FB0FCC46
:1047E0000FC50FCC0FC594E8030085E80300694BA3
:1047F000D3F84C21110340F1AE80A3F5FE431C8891
:104800004FF6FF739C4208BF5F248DF81940FDF7F7
:1048100079FA044484F308045F488DF81840FCF7E3
:104820007FF86846FDF772F93220FDF7E5FA5B483C
:10483000FDF7BCFB5A48FDF72DFC5A4C01213620F0
:10484000FCF7E0FE0020FDF7DDFAFDF78DFB236F9E
:10485000002023F0070343F003032367236F23F4AF
:10486000744343F4806323671CF034FC4E4BD3F84D
:10487000FC20D20173D4D4F8803023F0030343F03A
:104880000103C4F88030D4F88030C4F88030454C3F
:10489000D4F8203123F0070343F00203C4F8203199
:1048A000D4F8283123F0070343F00203C4F8283179
:1048B000D4F8803123F0030343F00103C4F88031BE
:1048C000D4F8403123F0030343F00203C4F840312D
:1048D000D4F8603123F0030343F00203C4F86031DD
:1048E000D4F8403223F0030343F00203C4F840320B
:1048F000D4F8003223F0070343F00203C4F8003277
:10490000D4F8083223F0070343F00203C4F8083256
:10491000D4F8703223F0030343F00103C4F870327B
:10492000D4F8203223F0070343F00103C4F8203207
:10493000FDF7AAF84FF0E0220020136963F00403AA
:104940001361D4F8603223F0070343F00103C4F885
:1049500060320BB030BDD3F85041E4B255E7D3F824
:10496000FC2022F08072C3F8FC20D4F8802022F0D2
:10497000030242F00102C4F88020D4F88020C4F879
:104980008020D3F8FC2042F08072C3F8FC207EE740
:1049900004DB02080080E00FC017530200B4C40417
:1049A000C0EA21010080005000ED00E007B5094B8E
:1049B00018689A889B7900906846ADF804208DF8B5
:1049C0000630FDF7FBFC0920FDF730FD002003B0A9
:1049D0005DF804FB40DB020870B501F00DFD0446F4
:1049E000E8B901F033FF01F0F1FD4FF416734343D2
:1049F0000C4A03F5742303F23F23B3FBF2F30A4995
:104A00000A480B600A230268094D0E68013B45F80D
:104A1000046B0E6813F0FF033244F6D102602046A7
:104A200070BD00BF40420F00B0160020801600206D
:104A300084160020012208B5034B1A701DF08DFF6B
:104A4000024B186008BD00BF1F2500207C16002007
:104A500010B501F0BBFD04461CF0B1FA844207D941
:104A60001DF089FF20B10122024B1860024B1A7021
:104A700010BD00BF7C1600201F250020F8B51F4C7C
:104A80002378E3B11DF069FF1D4B1E4D1B68C01A52
:104A900028602B68A3B12B682B6001F097FD4FF4C1
:104AA00016725043184A00F5742000F23F20B0FB04
:104AB000F2F02B682B68834204D900232370F8BDE1
:104AC0000123E9E71148124E0378296856F823209C
:104AD000104F511A3A68521A29683A6046F8231062
:104AE0000A210932B2FBF1F20B4D0133DBB22A602D
:104AF000B3FBF1F201FB12330370DEE71F25002048
:104B00007C160020AC16002040420F00202500201B
:104B10008416002080160020B0160020014B186873
:104B2000704700BFB016002070B502212C2000F0A5
:104B3000B5F84FF4801204250E4C0F4B0F4E5A66F9
:104B400004F500535E672C205D671E671D6700F04B
:104B500097F82C2000F086F804F580535E675D67B7
:104B6000A36A23F00073A362A36A43F48053A36291
:104B700070BD00BF0040005A00900050010000A02E
:104B8000064B074A996D11F0050F01D0117811B14C
:104B90000028F7D170470120704700BF0040005A3D
:104BA00021250020154B10B51C6F14F004020FD006
:104BB00003F500531A6708229A62FFF749FF01F0D4
:104BC00053F901F033F9012001F0ECFD1DF0D5FEA1
:104BD000E30706D501220A4B1A67FFF74FFF01F0E2
:104BE00025F914F000521CBF054B1A67002CBEBFFC
:104BF0004FF00042024B1A6710BD00BF0040005A40
:104C00000060005A6FF00403502110B50A480B4CA5
:104C100013F0800F03F1010206D123444C2A83F8DC
:104C200000131346F4D110BD03F00F03043B0344FB
:104C300019761346ECE700BF00ED00E000E100E06C
:104C400000280CDB01220649430900F01F008240C6
:104C5000203341F82320BFF34F8FBFF36F8F70478E
:104C600000E100E0002807DB01234109034A00F0CE
:104C70001F00834042F82130704700BF00E100E090
:104C8000002808DB01224309034900F01F0082408D
:104C9000603341F82320704700E100E00028ACBFFA
:104CA00000F16040064B4FEA0111C9B2ABBF00F5FD
:104CB000614000F00F0080F800131954704700BFE6
:104CC00014ED00E010B504461CF051F9024B1C60D5
:104CD0001CF051F9002010BDB416002010B51CF0D6
:104CE00046F9034B1C681CF046F9204610BD00BF76
:104CF000B4160020034B022218680023806819466E
:104D000003F0E6B93C28002030B51446054687B0CC
:104D100010461DF0A3FB6369024683423CBFD4E901
:104D200003315B181B1A7BB10F49049403910021D6
:104D3000CDE90131012300932846D4E900131CF08A
:104D400058F9002007B030BD0122627694F82D207A
:104D5000002AF6D084F835301321E36920469847BD
:104D60002046636A9847ECE7094D00082DE9F047B3
:104D700088B004460F46164698461CF0FFF8814658
:104D8000002E7AD0237E03F0FF02002B00F0A280D9
:104D900020461DF063FB6569A84205D1637ED4E916
:104DA000033213445D1B01E0F9D9451BB54228BF0E
:104DB00035461CF0E3F894F82D308246002B6DD177
:104DC0002A46384661691EF094FF63692E462B44DB
:104DD000636121E0037803F0FD0111295BD1216BB0
:104DE000814205D1A3F111014B424B4184F834308B
:104DF000013E6369216B01328B4203F1010308BF5D
:104E00002363636195426069E4D1D4E90323216B94
:104E10001344994200D122630025D4E90323616938
:104E20001344994208BF6261207A6576FBF7C6FF9A
:104E300020461DF013FB6369834232D1257694F836
:104E40002D30E568656103B125632046636A9847A4
:104E5000214B049403930023029323692A46019370
:104E60000123009363682168207A1CF0C2F8207A3D
:104E7000FBF7C4FF50461CF087F84846C8F80060AE
:104E80001CF082F8D8F80030002B0CBF1B2000204B
:104E900008B0BDE8F08707F8013BAAE72E460022DC
:104EA000B0E70123207A23760DF11E01FCF70EF8FE
:104EB0009DF81E30002BDAD00DF11F01207AFBF790
:104EC000DDFF9DF81F100029D1D12246207AFFF77F
:104ED0001BFFCCE71646D0E7094D00082DE9F0414D
:104EE0000C461546064686B04022002120461F4645
:104EF0001EF097FF95E8030000232A692376EB68EC
:104F000084E80300C4E904232A7DE36084F82C20AC
:104F1000AA7D2363012384F8343084F835300C9B58
:104F200084F82D2023620D9BE76163620E9BA362D0
:104F30002B7A84F836306B7A84F837302D4B346016
:104F400073602D4BB3602D4B33612D4B73612D4B33
:104F5000F360FBF7FFFE38B12B4B984204D01024CE
:104F6000204606B0BDE8F081002104F10800FBF7FF
:104F700079FE07460028F2D14FF00108234B336237
:104F8000234B84F83C80B361224BF3619DF84030A1
:104F900084F8390084F83B309DF83C30204684F892
:104FA0003A30697D84F838801DF095FA95F909004A
:104FB000FFF766FE95F90900FFF754FE164B0494BF
:104FC000CDE902732369CDE900836368E268216853
:104FD000207A1CF00EF804460028C0D195F908008C
:104FE000FFF74EFE95F90800FFF73CFE3046FFF74D
:104FF00069FEB5E7272502086D4D00084B2402081D
:10500000512402087D240208038000F025240208B0
:10501000D724020857240208094D00082DE9F04161
:1050200001271C465B4B86B002935B4B0C9D0193A2
:105030005A4B904600930A46CDE903772946584BD0
:10504000FFF74CFF0646002840F09B802368394656
:105050002B6463683A206B64637A85F84930237A5D
:1050600085F84830E37A85F84B30A37A85F84A30E2
:10507000637B85F84D30237B85F84C30E37B85F8E6
:105080004F30A37B85F84E30FCF7BCFA3B46042238
:10509000617A207AFDF726FA3B460222E17AA07A6D
:1050A000FDF720FA39466068FCF7ACFA88F8006032
:1050B00041462068FDF7F2FB1420617C394B01F179
:1050C000390252019850607A227A03EB411342EA86
:1050D0000042C3F83827E17AA27A42EA0142C3F8D3
:1050E000302785F8506098F81930032B4FD8DFE847
:1050F00003F0394C021C022385F8503000230422AF
:10510000E17BA07BFDF7EEF90220617C254B01F1EC
:10511000B9025201985003EB411341F22C71E07B2C
:10512000A27B42EA00425A501CE0012785F8503029
:1051300002220023617B207BFDF7D4F9617B227B77
:10514000637C42EA014241F228715B0103F1A04312
:1051500003F570335A500422236803F58053DA654F
:10516000002FCBD1237A2A6C85F84830637A052149
:1051700085F84930D36C206843F00403D3641CF0F5
:1051800002F8304606B0BDE8F0810027CEE72326BE
:10519000F7E700BF5526020849260208E126020863
:1051A000D526020800C0035073B50024684600F0FD
:1051B000E7F90C4B00981C600B4B0C4D1C600C4E1F
:1051C0000C4B306018602C601DF05EFB2046019B8C
:1051D0003268083BDB0853802B6801332B6002B038
:1051E00070BD00BFBC160020B8160020C0160020FD
:1051F000C8160020C41600202DE9F04F00261546E1
:1052000089B04A1C0C4614BF89464FF008099846DD
:105210000796002B00F0DB801E60002800F0D9808C
:10522000C71D1BF0ABFE27F0070B07AB2146039011
:1052300000932A463346584600F0ACF9079C0646D0
:1052400004B130B903981BF09FFE192009B0BDE8E6
:10525000F08FDFF89CA16288DAF80010D300C0EB71
:10526000C2020139272A0493CAF8001040F2828052
:10527000002D5AD183450BF1080551D049462046EF
:105280001DF08EFA81460790079A02EB050B5846EF
:105290001DF0FAFA0799C5F3CF054A88ABF8045018
:1052A000521BABF80220CA88002A3BD0551BADB276
:1052B00001EBC202ABF8065095808A884849A9F8EC
:1052C0000420BBF80420FF08A9F806200A68A9F802
:1052D0000270944208BFC1F800B042490A68944283
:1052E00001D1C1F800B099F8002042F0010289F81C
:1052F0000020DAF800200132CAF800203A4A039868
:10530000136833441360394A11688B4288BF1360B5
:105310001BF03AFE09F108030020C8F8003095E7B9
:10532000A146B1E7ABF80620C7E704EB02094846FF
:1053300005921DF0A9FA079C059AF108E088A9F8E2
:105340000210D108A9F8041088B1049BC3EBC00176
:105350003144C1F3CF0104EBC000A9F806108180ED
:10536000083AD2086280B9F80420E280BBE7A9F8C5
:105370000600F5E7012D2ED104F10802B2FBF9F188
:1053800009FB11224AB3494620461DF009FA81461D
:1053900099F80020DAF8003042F00102104F114D68
:1053A00089F8002083B13B689C4204D14946002023
:1053B00000F038F938602B689C429FD149460120A3
:1053C00000F030F9286099E73B602B6096E72220D7
:1053D0003CE721203AE78345D5D1A146D8E700BF75
:1053E000C8160020C4160020BC160020B8160020E5
:1053F000C01600202DE9F7430446684600F0C0F8C7
:10540000002C00F0B1801BF0B9FD14F808CC8146E7
:105410001CF0010F00F0AA8034F8061C002900F0EF
:10542000A580534D34F8047CD5F800E04A1C0EF1F9
:105430000103A4F1080692B22B60002F37D0A6EB2F
:10544000C70393F800800CF0020C18F0010F20D174
:10545000BCF1000F20D15A88023111448AB2C5F83C
:1054600000E034F802CCBCF1000F22D114F8085C43
:10547000511E6FF3000504F8085C002589B224F87A
:10548000065C5980197865F3000119700021D980F4
:105490002FE0BCF1000F0AD014F8081C17446FF37A
:1054A000410104F8081C0021BAB29980D9E73346BB
:1054B000D7E706EBCC01DDE900700744B942D5D24D
:1054C00016F83C6016F001072ED014F8085C6FF354
:1054D000000504F8085C002524F8065C541E5C8076
:1054E0001C7865F300041C70CC1AC4F3CF04DC8074
:1054F0008C80204C216819B1994201D8498801B9A2
:1055000023601D4C216819B1994201D3498801B922
:1055100023601A4948460B689B1A0B601BF034FD48
:10552000002003B0BDE8F0834E884F80013632443E
:10553000CE8892B2B6B101EBC6012E68013E2E6054
:1055400014F8085C6FF3000504F8085C002524F8E3
:10555000065C541E5C801C7865F300041C700029F6
:10556000C2D193E73146E8E72220DAE70120D8E705
:10557000C0160020C8160020C4160020BC1600204B
:105580000249034A0160521A42607047482A0020CB
:1055900000000420F0B54C1C074608BF0821AAB93A
:1055A0001E480468002C37D06688DB0003EBC60673
:1055B000C1F1000C2078C0070AD52ABBE08850B39F
:1055C00004EBC004668803EBC606F3E71448E8E77B
:1055D000BE42F2D362B904F10805B5FBF1F001FB5C
:1055E0001055E8190DB1B042E8D8059B1C60F0BD1C
:1055F00008290ED06588013504EBC505E81B00EAD3
:105600000C00281A8642F0D2A08820B1A4EBC00476
:10561000D8E73846E9E704462046E6E7C816002002
:10562000C416002013B50446084621B96846FFF7A2
:10563000A7FF6CB900980378DA0707D55CB9C3886F
:105640009BB100EBC3000378DB07F8D402B010BDB8
:10565000164B1868EFE7012C07D183882BB1A0EB1C
:10566000C3000378D907F8D4F0E76846FFF788FF4E
:10567000002300980278D2070CD4002CE6D0C3880F
:10568000002BE3D000EBC30210F83330DB0706D564
:1056900003461046C28822B100EBC200EAE710467A
:1056A000EDE7002BE6D01846D0E700BFC416002077
:1056B000BFF35F8F074B5A6A22F480325A62D3F8E5
:1056C000942022F00102C3F89420BFF34F8FBFF360
:1056D0006F8F704700ED00E038B5FFF7E9FF284A0B
:1056E0002848D2F8C030284D23F0FF0343F0A00330
:1056F000C2F8C030254B04689D4204F101011ED15F
:10570000234BC2F89840C2F89C3003F57F3303F274
:10571000FE33C2F8A0300160BFF35F8F0522184B43
:10572000C3F894205A6A42F480325A62BFF34F8F12
:10573000BFF36F8FBFF34F8FBFF36F8F38BD23F071
:105740001F03203BB3F1005F09D3C2F89840104C0F
:1057500043F00103C2F89C40C2F8A03001600D4B39
:105760000168074A23F01F0343F00303C2F89810AF
:10577000C2F89C30084B0131C2F8A030CBE700BF23
:1057800000ED00E0CC160020E82700203C26002099
:105790000300002007280020E1FF03202DE9F0414D
:1057A0000D461146DFF8E080D8F80040B4F5807F60
:1057B00034BF00271A27FFF77BFF1F292ED90021AE
:1057C000C2061CBF20F01F0020302E4EEB0618BF73
:1057D00025F01F05CBB29C4235D8D6F8C03020F05A
:1057E0001F0023F47F4343F48073C6F8C03040F0B9
:1057F00003041BF0C3FBD8F8003025F01F0141F073
:105800000301C6F89830C6F89C40C6F8A0101BF0FB
:10581000BBFBD8F800300133C8F80030BFF35F8F0E
:105820000522184BC3F894205A6A42F480325A6217
:10583000BFF34F8FBFF36F8FBFF34F8FBFF36F8FE8
:105840003846BDE8F081C6F89830D6F89C30D6F8D6
:10585000A02023F01F03984222F01F0201D195429D
:105860000BD0904201D89D4209D2D6F89830013130
:1058700023F0FF03C6F89830ACE70027CEE72827CF
:10588000CCE700BF00ED00E0CC160020BFF34F8F47
:105890000549064BCA6802F4E0621343CB60BFF3CC
:1058A0004F8F00BFFDE700BF00ED00E00400FA05E8
:1058B000054B1A782AB95B78002B0CBF0320022015
:1058C00070470120704700BF2C2500200329F8B540
:1058D00098BF124B05460E468CBF00245C5C032823
:1058E00005D8DFE800F002080B0E44F002040C4B70
:1058F0001F684FB9F8BD44F00804F8E744F02004ED
:10590000F5E744F08004F2E77B681A68144203D09C
:10591000314628465B6898473F68EAE764DB02083F
:10592000FC16002038B5104D2B78ABB10F4C237806
:105930001BB100F0D9FB00232370002000F0FCFB1A
:105940000B4C50B100F002FC0023012120782B7099
:10595000FFF7BCFF0123237038BD0122054B1A70ED
:105960002278054B1A70F7E727250020252500200F
:105970002E250020282500202925002010B51BF009
:10598000F6FA064B04461B781BB1BDE810401BF02D
:10599000F2BAFFF7C7FF2046F7E700BF2425002033
:1059A000094A137830B101331370084B1B78012B6F
:1059B00003D87047013B13707047054B1B780BB938
:1059C000FFF7B0BF704700BF2C2500202E25002018
:1059D0002825002070B51BF0CAFA174E054633780B
:1059E000E3B900F009FD044620B128461BF0C3FAD4
:1059F000204670BD00F010FF10481BF0C8FA00F000
:105A0000E7FF0F4B1C6000F0E1FD0E4B0E4A1860E3
:105A1000536F43F0010353671CF051FF00F058FA35
:105A20001CF048FF094B00241860012328463370FE
:105A30001BF0A1FADCE700BF2F250020FC16002098
:105A4000D0160020F816002000400050D416002088
:105A50002DE9F843284A0138135C39B1274F013347
:105A600039781354012904D8BDE8F883013B135455
:105A7000FAE7FFF71DFF0128044635D81BF077FA37
:105A8000DFF88480054698F8003013B31C4E337855
:105A90001BB9012232701B4A1370DFF8709099F81D
:105AA000003023B100F020FB002389F800302846A5
:105AB0001BF061FA012000F03FFB1BF058FA33782D
:105AC00005461BB100F042FB00233370002388F829
:105AD000003028461BF04FFA3878A042C4D0214647
